{
    "_format": "hh-sol-artifact-1",
    "contractName": "Voting",
    "sourceName": "contracts/Voting.sol",
    "abi": [
        {
            "inputs": [],
            "stateMutability": "nonpayable",
            "type": "constructor"
        },
        {
            "anonymous": false,
            "inputs": [
                {
                    "indexed": true,
                    "internalType": "uint256",
                    "name": "round",
                    "type": "uint256"
                },
                {
                    "indexed": true,
                    "internalType": "address",
                    "name": "voter",
                    "type": "address"
                },
                {
                    "indexed": false,
                    "internalType": "uint256",
                    "name": "candidateId",
                    "type": "uint256"
                },
                {
                    "indexed": false,
                    "internalType": "uint256",
                    "name": "voteCount",
                    "type": "uint256"
                }
            ],
            "name": "VoteCast",
            "type": "event"
        },
        {
            "inputs": [
                {
                    "internalType": "uint256",
                    "name": "",
                    "type": "uint256"
                }
            ],
            "name": "candidates",
            "outputs": [
                {
                    "internalType": "string",
                    "name": "name",
                    "type": "string"
                },
                {
                    "internalType": "uint256",
                    "name": "voteCount",
                    "type": "uint256"
                }
            ],
            "stateMutability": "view",
            "type": "function"
        },
        {
            "inputs": [],
            "name": "candidatesCount",
            "outputs": [
                {
                    "internalType": "uint256",
                    "name": "",
                    "type": "uint256"
                }
            ],
            "stateMutability": "view",
            "type": "function"
        },
        {
            "inputs": [],
            "name": "currentRound",
            "outputs": [
                {
                    "internalType": "uint256",
                    "name": "",
                    "type": "uint256"
                }
            ],
            "stateMutability": "view",
            "type": "function"
        },
        {
            "inputs": [],
            "name": "startNewRound",
            "outputs": [],
            "stateMutability": "nonpayable",
            "type": "function"
        },
        {
            "inputs": [
                {
                    "internalType": "uint256",
                    "name": "_candidateId",
                    "type": "uint256"
                }
            ],
            "name": "vote",
            "outputs": [],
            "stateMutability": "nonpayable",
            "type": "function"
        },
        {
            "inputs": [
                {
                    "internalType": "address",
                    "name": "",
                    "type": "address"
                }
            ],
            "name": "voters",
            "outputs": [
                {
                    "internalType": "bool",
                    "name": "",
                    "type": "bool"
                }
            ],
            "stateMutability": "view",
            "type": "function"
        }
    ],
    "bytecode": "0x608060405260016003553480156200001657600080fd5b506200005d6040518060400160405280600b81526020017f43616e6469646174652031000000000000000000000000000000000000000000815250620000a960201b60201c565b620000a36040518060400160405280600b81526020017f43616e6469646174652032000000000000000000000000000000000000000000815250620000a960201b60201c565b620004f3565b604051806040016040528082815260200160008152506001600060025481526020019081526020016000206000820151816000019081620000eb919062000390565b5060208201518160010155905050600260008154809291906200010e90620004a6565b919050555050565b600081519050919050565b7f4e487b7100000000000000000000000000000000000000000000000000000000600052604160045260246000fd5b7f4e487b7100000000000000000000000000000000000000000000000000000000600052602260045260246000fd5b600060028204905060018216806200019857607f821691505b602082108103620001ae57620001ad62000150565b5b50919050565b60008190508160005260206000209050919050565b60006020601f8301049050919050565b600082821b905092915050565b600060088302620002187fffffffffffffffffffffffffffffffffffffffffffffffffffffffffffffffff82620001d9565b620002248683620001d9565b95508019841693508086168417925050509392505050565b6000819050919050565b6000819050919050565b6000620002716200026b62000265846200023c565b62000246565b6200023c565b9050919050565b6000819050919050565b6200028d8362000250565b620002a56200029c8262000278565b848454620001e6565b825550505050565b600090565b620002bc620002ad565b620002c981848462000282565b505050565b5b81811015620002f157620002e5600082620002b2565b600181019050620002cf565b5050565b601f82111562000340576200030a81620001b4565b6200031584620001c9565b8101602085101562000325578190505b6200033d6200033485620001c9565b830182620002ce565b50505b505050565b600082821c905092915050565b6000620003656000198460080262000345565b1980831691505092915050565b600062000380838362000352565b9150826002028217905092915050565b6200039b8262000116565b67ffffffffffffffff811115620003b757620003b662000121565b5b620003c382546200017f565b620003d0828285620002f5565b600060209050601f831160018114620004085760008415620003f3578287015190505b620003ff858262000372565b8655506200046f565b601f1984166200041886620001b4565b60005b8281101562000442578489015182556001820191506020850194506020810190506200041b565b868310156200046257848901516200045e601f89168262000352565b8355505b6001600288020188555050505b505050505050565b7f4e487b7100000000000000000000000000000000000000000000000000000000600052601160045260246000fd5b6000620004b3826200023c565b91507fffffffffffffffffffffffffffffffffffffffffffffffffffffffffffffffff8203620004e857620004e762000477565b5b600182019050919050565b61083980620005036000396000f3fe608060405234801561001057600080fd5b50600436106100625760003560e01c80630121b93f146100675780632d35a8a2146100835780633477ee2e146100a15780638a19c8bc146100d2578063a3ec138d146100f0578063bd85948c14610120575b600080fd5b610081600480360381019061007c9190610453565b61012a565b005b61008b6102e9565b604051610098919061048f565b60405180910390f35b6100bb60048036038101906100b69190610453565b6102ef565b6040516100c992919061053a565b60405180910390f35b6100da61039b565b6040516100e7919061048f565b60405180910390f35b61010a600480360381019061010591906105c8565b6103a1565b6040516101179190610610565b60405180910390f35b6101286103c1565b005b6000803373ffffffffffffffffffffffffffffffffffffffff1673ffffffffffffffffffffffffffffffffffffffff16815260200190815260200160002060009054906101000a900460ff16156101b6576040517f08c379a00000000000000000000000000000000000000000000000000000000081526004016101ad90610677565b60405180910390fd5b60025481106101fa576040517f08c379a00000000000000000000000000000000000000000000000000000000081526004016101f1906106e3565b60405180910390fd5b60016000803373ffffffffffffffffffffffffffffffffffffffff1673ffffffffffffffffffffffffffffffffffffffff16815260200190815260200160002060006101000a81548160ff02191690831515021790555060016000828152602001908152602001600020600101600081548092919061027890610732565b91905055503373ffffffffffffffffffffffffffffffffffffffff166003547f0271f53eebbe20450d9578f28ec279231556c34545b30e2278d754ffd39cd63c8360016000868152602001908152602001600020600101546040516102de92919061077a565b60405180910390a350565b60025481565b6001602052806000526040600020600091509050806000018054610312906107d2565b80601f016020809104026020016040519081016040528092919081815260200182805461033e906107d2565b801561038b5780601f106103605761010080835404028352916020019161038b565b820191906000526020600020905b81548152906001019060200180831161036e57829003601f168201915b5050505050908060010154905082565b60035481565b60006020528060005260406000206000915054906101000a900460ff1681565b600360008154809291906103d490610732565b919050555060005b6002548110156104155760006001600083815260200190815260200160002060010181905550808061040d90610732565b9150506103dc565b50565b600080fd5b6000819050919050565b6104308161041d565b811461043b57600080fd5b50565b60008135905061044d81610427565b92915050565b60006020828403121561046957610468610418565b5b60006104778482850161043e565b91505092915050565b6104898161041d565b82525050565b60006020820190506104a46000830184610480565b92915050565b600081519050919050565b600082825260208201905092915050565b60005b838110156104e45780820151818401526020810190506104c9565b60008484015250505050565b6000601f19601f8301169050919050565b600061050c826104aa565b61051681856104b5565b93506105268185602086016104c6565b61052f816104f0565b840191505092915050565b600060408201905081810360008301526105548185610501565b90506105636020830184610480565b9392505050565b600073ffffffffffffffffffffffffffffffffffffffff82169050919050565b60006105958261056a565b9050919050565b6105a58161058a565b81146105b057600080fd5b50565b6000813590506105c28161059c565b92915050565b6000602082840312156105de576105dd610418565b5b60006105ec848285016105b3565b91505092915050565b60008115159050919050565b61060a816105f5565b82525050565b60006020820190506106256000830184610601565b92915050565b7f596f75206861766520616c726561647920766f7465642e000000000000000000600082015250565b60006106616017836104b5565b915061066c8261062b565b602082019050919050565b6000602082019050818103600083015261069081610654565b9050919050565b7f496e76616c69642063616e6469646174652049442e0000000000000000000000600082015250565b60006106cd6015836104b5565b91506106d882610697565b602082019050919050565b600060208201905081810360008301526106fc816106c0565b9050919050565b7f4e487b7100000000000000000000000000000000000000000000000000000000600052601160045260246000fd5b600061073d8261041d565b91507fffffffffffffffffffffffffffffffffffffffffffffffffffffffffffffffff820361076f5761076e610703565b5b600182019050919050565b600060408201905061078f6000830185610480565b61079c6020830184610480565b9392505050565b7f4e487b7100000000000000000000000000000000000000000000000000000000600052602260045260246000fd5b600060028204905060018216806107ea57607f821691505b6020821081036107fd576107fc6107a3565b5b5091905056fea2646970667358221220e014a010ba74cad13170d97d2708b0f8afba5d9f1b5df2975be56732405e7d5c64736f6c63430008130033",
    "linkReferences": {},
    "deployedLinkReferences": {}
}